{
  "contractName": "TokenFarm",
  "abi": [
    {
      "inputs": [
        {
          "internalType": "contract DaiToken",
          "name": "_daiToken",
          "type": "address"
        },
        {
          "internalType": "contract StonkToken",
          "name": "_stonkToken",
          "type": "address"
        }
      ],
      "stateMutability": "nonpayable",
      "type": "constructor"
    },
    {
      "inputs": [],
      "name": "daiToken",
      "outputs": [
        {
          "internalType": "contract DaiToken",
          "name": "",
          "type": "address"
        }
      ],
      "stateMutability": "view",
      "type": "function",
      "constant": true
    },
    {
      "inputs": [
        {
          "internalType": "address",
          "name": "",
          "type": "address"
        }
      ],
      "name": "hasStaked",
      "outputs": [
        {
          "internalType": "bool",
          "name": "",
          "type": "bool"
        }
      ],
      "stateMutability": "view",
      "type": "function",
      "constant": true
    },
    {
      "inputs": [
        {
          "internalType": "address",
          "name": "",
          "type": "address"
        }
      ],
      "name": "isStaking",
      "outputs": [
        {
          "internalType": "bool",
          "name": "",
          "type": "bool"
        }
      ],
      "stateMutability": "view",
      "type": "function",
      "constant": true
    },
    {
      "inputs": [],
      "name": "name",
      "outputs": [
        {
          "internalType": "string",
          "name": "",
          "type": "string"
        }
      ],
      "stateMutability": "view",
      "type": "function",
      "constant": true
    },
    {
      "inputs": [],
      "name": "owner",
      "outputs": [
        {
          "internalType": "address",
          "name": "",
          "type": "address"
        }
      ],
      "stateMutability": "view",
      "type": "function",
      "constant": true
    },
    {
      "inputs": [
        {
          "internalType": "uint256",
          "name": "",
          "type": "uint256"
        }
      ],
      "name": "stakers",
      "outputs": [
        {
          "internalType": "address",
          "name": "",
          "type": "address"
        }
      ],
      "stateMutability": "view",
      "type": "function",
      "constant": true
    },
    {
      "inputs": [
        {
          "internalType": "address",
          "name": "",
          "type": "address"
        }
      ],
      "name": "stakingBalance",
      "outputs": [
        {
          "internalType": "uint256",
          "name": "",
          "type": "uint256"
        }
      ],
      "stateMutability": "view",
      "type": "function",
      "constant": true
    },
    {
      "inputs": [],
      "name": "stonkToken",
      "outputs": [
        {
          "internalType": "contract StonkToken",
          "name": "",
          "type": "address"
        }
      ],
      "stateMutability": "view",
      "type": "function",
      "constant": true
    },
    {
      "inputs": [
        {
          "internalType": "uint256",
          "name": "_amount",
          "type": "uint256"
        }
      ],
      "name": "stakeDaiTokens",
      "outputs": [],
      "stateMutability": "nonpayable",
      "type": "function"
    },
    {
      "inputs": [],
      "name": "unstakeDaiTokens",
      "outputs": [],
      "stateMutability": "nonpayable",
      "type": "function"
    },
    {
      "inputs": [],
      "name": "issueTokens",
      "outputs": [],
      "stateMutability": "nonpayable",
      "type": "function"
    }
  ],
  "bytecode": "0x60806040526040518060400160405280601181526020017f53746f6e6b7320546f6b656e204661726d000000000000000000000000000000815250600090805190602001906200005192919062000150565b503480156200005f57600080fd5b50604051620014b3380380620014b383398181016040528101906200008591906200022e565b81600260006101000a81548173ffffffffffffffffffffffffffffffffffffffff021916908373ffffffffffffffffffffffffffffffffffffffff16021790555080600360006101000a81548173ffffffffffffffffffffffffffffffffffffffff021916908373ffffffffffffffffffffffffffffffffffffffff16021790555033600160006101000a81548173ffffffffffffffffffffffffffffffffffffffff021916908373ffffffffffffffffffffffffffffffffffffffff160217905550505062000364565b8280546200015e90620002cb565b90600052602060002090601f016020900481019282620001825760008555620001ce565b82601f106200019d57805160ff1916838001178555620001ce565b82800160010185558215620001ce579182015b82811115620001cd578251825591602001919060010190620001b0565b5b509050620001dd9190620001e1565b5090565b5b80821115620001fc576000816000905550600101620001e2565b5090565b600081519050620002118162000330565b92915050565b60008151905062000228816200034a565b92915050565b600080604083850312156200024257600080fd5b6000620002528582860162000200565b9250506020620002658582860162000217565b9150509250929050565b60006200027c82620002ab565b9050919050565b600062000290826200026f565b9050919050565b6000620002a4826200026f565b9050919050565b600073ffffffffffffffffffffffffffffffffffffffff82169050919050565b60006002820490506001821680620002e457607f821691505b60208210811415620002fb57620002fa62000301565b5b50919050565b7f4e487b7100000000000000000000000000000000000000000000000000000000600052602260045260246000fd5b6200033b8162000283565b81146200034757600080fd5b50565b620003558162000297565b81146200036157600080fd5b50565b61113f80620003746000396000f3fe608060405234801561001057600080fd5b50600436106100a95760003560e01c80638da5cb5b116100715780638da5cb5b14610152578063b7c3f62214610170578063be22f5461461018e578063c93c8f34146101ac578063f09242b5146101dc578063fd5e6dd1146101e6576100a9565b806306fdde03146100ae57806345bc78ab146100cc57806360ab5852146100fc5780636f49712b1461010657806384f80e1a14610136575b600080fd5b6100b6610216565b6040516100c39190610d0d565b60405180910390f35b6100e660048036038101906100e19190610ad9565b6102a4565b6040516100f39190610d8f565b60405180910390f35b6101046102bc565b005b610120600480360381019061011b9190610ad9565b6104e7565b60405161012d9190610cbc565b60405180910390f35b610150600480360381019061014b9190610b2b565b610507565b005b61015a6107f2565b6040516101679190610c41565b60405180910390f35b610178610818565b6040516101859190610cf2565b60405180910390f35b61019661083e565b6040516101a39190610cd7565b60405180910390f35b6101c660048036038101906101c19190610ad9565b610864565b6040516101d39190610cbc565b60405180910390f35b6101e4610884565b005b61020060048036038101906101fb9190610b2b565b610a5b565b60405161020d9190610c41565b60405180910390f35b6000805461022390610f39565b80601f016020809104026020016040519081016040528092919081815260200182805461024f90610f39565b801561029c5780601f106102715761010080835404028352916020019161029c565b820191906000526020600020905b81548152906001019060200180831161027f57829003601f168201915b505050505081565b60056020528060005260406000206000915090505481565b600160009054906101000a900473ffffffffffffffffffffffffffffffffffffffff1673ffffffffffffffffffffffffffffffffffffffff163373ffffffffffffffffffffffffffffffffffffffff161461034c576040517f08c379a000000000000000000000000000000000000000000000000000000000815260040161034390610d2f565b60405180910390fd5b60005b6004805490508110156104e457600060048281548110610398577f4e487b7100000000000000000000000000000000000000000000000000000000600052603260045260246000fd5b9060005260206000200160009054906101000a900473ffffffffffffffffffffffffffffffffffffffff1690506000600560008373ffffffffffffffffffffffffffffffffffffffff1673ffffffffffffffffffffffffffffffffffffffff16815260200190815260200160002054905060008111156104cf57600360009054906101000a900473ffffffffffffffffffffffffffffffffffffffff1673ffffffffffffffffffffffffffffffffffffffff1663a9059cbb8360038461045e9190610e1c565b6040518363ffffffff1660e01b815260040161047b929190610c93565b602060405180830381600087803b15801561049557600080fd5b505af11580156104a9573d6000803e3d6000fd5b505050506040513d601f19601f820116820180604052508101906104cd9190610b02565b505b505080806104dc90610f6b565b91505061034f565b50565b60076020528060005260406000206000915054906101000a900460ff1681565b6000811161054a576040517f08c379a000000000000000000000000000000000000000000000000000000000815260040161054190610d4f565b60405180910390fd5b600260009054906101000a900473ffffffffffffffffffffffffffffffffffffffff1673ffffffffffffffffffffffffffffffffffffffff166323b872dd3330846040518463ffffffff1660e01b81526004016105a993929190610c5c565b602060405180830381600087803b1580156105c357600080fd5b505af11580156105d7573d6000803e3d6000fd5b505050506040513d601f19601f820116820180604052508101906105fb9190610b02565b5080600560003373ffffffffffffffffffffffffffffffffffffffff1673ffffffffffffffffffffffffffffffffffffffff168152602001908152602001600020546106479190610dc6565b600560003373ffffffffffffffffffffffffffffffffffffffff1673ffffffffffffffffffffffffffffffffffffffff16815260200190815260200160002081905550600660003373ffffffffffffffffffffffffffffffffffffffff1673ffffffffffffffffffffffffffffffffffffffff16815260200190815260200160002060009054906101000a900460ff1661073f576004339080600181540180825580915050600190039060005260206000200160009091909190916101000a81548173ffffffffffffffffffffffffffffffffffffffff021916908373ffffffffffffffffffffffffffffffffffffffff1602179055505b6001600760003373ffffffffffffffffffffffffffffffffffffffff1673ffffffffffffffffffffffffffffffffffffffff16815260200190815260200160002060006101000a81548160ff0219169083151502179055506001600660003373ffffffffffffffffffffffffffffffffffffffff1673ffffffffffffffffffffffffffffffffffffffff16815260200190815260200160002060006101000a81548160ff02191690831515021790555050565b600160009054906101000a900473ffffffffffffffffffffffffffffffffffffffff1681565b600360009054906101000a900473ffffffffffffffffffffffffffffffffffffffff1681565b600260009054906101000a900473ffffffffffffffffffffffffffffffffffffffff1681565b60066020528060005260406000206000915054906101000a900460ff1681565b6000600560003373ffffffffffffffffffffffffffffffffffffffff1673ffffffffffffffffffffffffffffffffffffffff1681526020019081526020016000205490506000811161090b576040517f08c379a000000000000000000000000000000000000000000000000000000000815260040161090290610d6f565b60405180910390fd5b600260009054906101000a900473ffffffffffffffffffffffffffffffffffffffff1673ffffffffffffffffffffffffffffffffffffffff1663a9059cbb33836040518363ffffffff1660e01b8152600401610968929190610c93565b602060405180830381600087803b15801561098257600080fd5b505af1158015610996573d6000803e3d6000fd5b505050506040513d601f19601f820116820180604052508101906109ba9190610b02565b506000600560003373ffffffffffffffffffffffffffffffffffffffff1673ffffffffffffffffffffffffffffffffffffffff168152602001908152602001600020819055506000600760003373ffffffffffffffffffffffffffffffffffffffff1673ffffffffffffffffffffffffffffffffffffffff16815260200190815260200160002060006101000a81548160ff02191690831515021790555050565b60048181548110610a6b57600080fd5b906000526020600020016000915054906101000a900473ffffffffffffffffffffffffffffffffffffffff1681565b600081359050610aa9816110c4565b92915050565b600081519050610abe816110db565b92915050565b600081359050610ad3816110f2565b92915050565b600060208284031215610aeb57600080fd5b6000610af984828501610a9a565b91505092915050565b600060208284031215610b1457600080fd5b6000610b2284828501610aaf565b91505092915050565b600060208284031215610b3d57600080fd5b6000610b4b84828501610ac4565b91505092915050565b610b5d81610e76565b82525050565b610b6c81610e88565b82525050565b610b7b81610ebe565b82525050565b610b8a81610ee2565b82525050565b6000610b9b82610daa565b610ba58185610db5565b9350610bb5818560208601610f06565b610bbe81611012565b840191505092915050565b6000610bd6603b83610db5565b9150610be182611023565b604082019050919050565b6000610bf9601483610db5565b9150610c0482611072565b602082019050919050565b6000610c1c601e83610db5565b9150610c278261109b565b602082019050919050565b610c3b81610eb4565b82525050565b6000602082019050610c566000830184610b54565b92915050565b6000606082019050610c716000830186610b54565b610c7e6020830185610b54565b610c8b6040830184610c32565b949350505050565b6000604082019050610ca86000830185610b54565b610cb56020830184610c32565b9392505050565b6000602082019050610cd16000830184610b63565b92915050565b6000602082019050610cec6000830184610b72565b92915050565b6000602082019050610d076000830184610b81565b92915050565b60006020820190508181036000830152610d278184610b90565b905092915050565b60006020820190508181036000830152610d4881610bc9565b9050919050565b60006020820190508181036000830152610d6881610bec565b9050919050565b60006020820190508181036000830152610d8881610c0f565b9050919050565b6000602082019050610da46000830184610c32565b92915050565b600081519050919050565b600082825260208201905092915050565b6000610dd182610eb4565b9150610ddc83610eb4565b9250827fffffffffffffffffffffffffffffffffffffffffffffffffffffffffffffffff03821115610e1157610e10610fb4565b5b828201905092915050565b6000610e2782610eb4565b9150610e3283610eb4565b9250817fffffffffffffffffffffffffffffffffffffffffffffffffffffffffffffffff0483118215151615610e6b57610e6a610fb4565b5b828202905092915050565b6000610e8182610e94565b9050919050565b60008115159050919050565b600073ffffffffffffffffffffffffffffffffffffffff82169050919050565b6000819050919050565b6000610ec982610ed0565b9050919050565b6000610edb82610e94565b9050919050565b6000610eed82610ef4565b9050919050565b6000610eff82610e94565b9050919050565b60005b83811015610f24578082015181840152602081019050610f09565b83811115610f33576000848401525b50505050565b60006002820490506001821680610f5157607f821691505b60208210811415610f6557610f64610fe3565b5b50919050565b6000610f7682610eb4565b91507fffffffffffffffffffffffffffffffffffffffffffffffffffffffffffffffff821415610fa957610fa8610fb4565b5b600182019050919050565b7f4e487b7100000000000000000000000000000000000000000000000000000000600052601160045260246000fd5b7f4e487b7100000000000000000000000000000000000000000000000000000000600052602260045260246000fd5b6000601f19601f8301169050919050565b7f497373756572204f6620546f6b656e73204d757374204265204f776e6572204f60008201527f6620546f6b656e204661726d20536d61727420436f6e74726163740000000000602082015250565b7f596f752048617665204e6f204d6f6e6579203a2f000000000000000000000000600082015250565b7f596f752048617665204e6f205374616b696e672042616c616e6365203a2f0000600082015250565b6110cd81610e76565b81146110d857600080fd5b50565b6110e481610e88565b81146110ef57600080fd5b50565b6110fb81610eb4565b811461110657600080fd5b5056fea2646970667358221220a6b1a66553a23e108e677182f42da7c400b154cbf0d6f426d2349cd3796b13d464736f6c63430008040033",
  "immutableReferences": {},
  "source": "// SPDX-License-Identifier: GPL-3.0\npragma solidity 0.8.4;\n\nimport \"./StonkToken.sol\";\nimport \"./DaiToken.sol\";\n\n// Token Farm Contract - Values And Functions\ncontract TokenFarm {\n\n    // Token Farm Values\n    string public name = \"Stonks Token Farm\";\n    address public owner;\n    DaiToken public daiToken;\n    StonkToken public stonkToken;\n\n    // Token Farm User State\n    address[] public stakers;\n    mapping(address => uint) public stakingBalance;\n    mapping(address => bool) public hasStaked;\n    mapping(address => bool) public isStaking;\n\n    // Constructor ( Assigning Handles For Each Contract - Dai Token , Stonk Token , Token Farm )\n    constructor(DaiToken _daiToken , StonkToken _stonkToken) {\n\n        // Contract Handles || Dai Token , Stonk Token , TokenFarm\n        daiToken = _daiToken;\n        stonkToken = _stonkToken;\n        owner = msg.sender;\n    }\n    \n    // Token Function ( Allows Investors To Stake Dai Token To Token Farm )\n    function stakeDaiTokens(uint _amount) public {\n        require(_amount > 0 , 'You Have No Money :/');\n        daiToken.transferFrom(msg.sender , address(this) , _amount);\n        stakingBalance[msg.sender] = stakingBalance[msg.sender] + _amount;\n        if (!hasStaked[msg.sender]) {\n            stakers.push(msg.sender);\n        }\n        isStaking[msg.sender] = true;\n        hasStaked[msg.sender] = true;\n    }\n\n    // Token Function ( Allows Investors To Unstake Dai Token From Token Farm )\n    function unstakeDaiTokens() public {\n        uint balance = stakingBalance[msg.sender];\n        require(balance > 0 , 'You Have No Staking Balance :/');\n        daiToken.transfer(msg.sender , balance);\n        stakingBalance[msg.sender] = 0;\n        isStaking[msg.sender] = false;\n    }\n\n    // Token Function ( Allows Token Farm Owner To Issue Stonk Tokens To Investors )\n    function issueTokens() public {\n        require(msg.sender == owner , 'Issuer Of Tokens Must Be Owner Of Token Farm Smart Contract');\n        for ( uint i = 0; i < stakers.length; i++) {\n            address recipient = stakers[i];\n            uint balance = stakingBalance[recipient];\n            if ( balance > 0 ) {\n                stonkToken.transfer(recipient , balance * 3);\n            }            \n        }\n    }\n\n}",
  "sourcePath": "/home/bean/Documents/BlockChainProjects/ethProjects/TokenFarm/src/contracts/TokenFarm.sol",
  "compiler": {
    "name": "solc",
    "version": "0.8.4+commit.c7e474f2.Emscripten.clang"
  },
  "schemaVersion": "3.2.3",
  "updatedAt": "2021-05-14T15:12:25.611Z",
  "networkType": "ethereum",
  "devdoc": {
    "kind": "dev",
    "methods": {},
    "version": 1
  },
  "userdoc": {
    "kind": "user",
    "methods": {},
    "version": 1
  }
}